:10000000A7C30000D6C30000D4C30000D2C30000C1
:10001000D0C30000CEC30000CCC30000CAC30000A0
:10002000C8C30000C6C30000C4C30000C2C30000B0
:10003000C0C30000BEC30000BCC30000BAC30000C0
:10004000B8C30000B6C30000B4C30000B2C30000D0
:10005000B0C30000AEC30000ACC300000C94390B69
:10006000A8C300000C94C10B0C94980BA2C3000011
:10007000A0C300009EC300009CC300009AC3000000
:1000800098C3000096C3000094C3000092C3000010
:1000900090C300008EC300008CC300000C94D408F1
:1000A00088C3000086C3000084C3000082C3000030
:1000B00080C300007EC300007CC300007AC3000040
:1000C00078C3000076C3000074C3000072C3000050
:1000D00070C300006EC300006CC300006AC3000060
:1000E00068C30000F316F616E516E916ED162D178F
:1000F000FA16FE16041708170C17121716171A17F8
:100100002D172017241728173A183F1844184E188F
:100110005818D11862186A1872187C188618901826
:100120009F18A918D118B318BD18C71800000000EF
:10013000003E5B4F5B3E3E6B4F6B3E1C3E7C3E1C6D
:10014000183C7E3C181C577D571C1C5E7F5E1C00B3
:10015000183C1800FFE7C3E7FF0018241800FFE76A
:10016000DBE7FF30483A060E2629792926407F052D
:100170000507407F05253F5A3CE73C5A7F3E1C1C43
:1001800008081C1C3E7F14227F22145F5F005F5F03
:1001900006097F017F006689956A606060606094EF
:1001A000A2FFA29408047E040810207E20100808F4
:1001B0002A1C08081C2A08081E101010100C1E0CFF
:1001C0001E0C30383E3830060E3E0E060000000091
:1001D0000000005F00000007000700147F147F1478
:1001E000242A7F2A122313086462364956205000BD
:1001F00008070300001C2241000041221C002A1CA9
:100200007F1C2A08083E0808008070300008080893
:100210000808000060600020100804023E514945B3
:100220003E00427F400072494949462141494D33D1
:100230001814127F1027454545393C4A4949314138
:10024000211109073649494936464949291E000006
:10025000140000004034000000081422411414145B
:100260001414004122140802015909063E415D5947
:100270004E7C1211127C7F494949363E4141412250
:100280007F4141413E7F494949417F090909013E7A
:10029000414151737F0808087F00417F41002040A1
:1002A000413F017F081422417F404040407F021CB3
:1002B000027F7F0408107F3E4141413E7F090909CA
:1002C000063E4151215E7F09192946264949493296
:1002D00003017F01033F4040403F1F2040201F3F5C
:1002E0004038403F631408146303047804036159E1
:1002F000494D43007F414141020408102000414123
:10030000417F0402010204404040404000030708CE
:100310000020545478407F284444383844444428CA
:10032000384444287F385454541800087E09021871
:10033000A4A49C787F0804047800447D40002040F9
:10034000403D007F1028440000417F40007C04783D
:1003500004787C080404783844444438FC18242485
:100360001818242418FC7C08040408485454542405
:1003700004043F44243C4040207C1C2040201C3C82
:100380004030403C44281028444C9090907C446479
:10039000544C44000836410000007700000041360C
:1003A000080002010204023C2623263C1EA1A16192
:1003B000123A4040207A38545455592155557941C4
:1003C0002254547842215554784020545579400C99
:1003D0001E5272123955555559395454545939557C
:1003E0005454580000457C410002457D42000145BF
:1003F0007C407D1211127DF0282528F07C54554553
:10040000002054547C547C0A097F493249494932BE
:100410003A4444443A324A4848303A4141217A3ACF
:1004200042402078009DA0A07D3D4242423D3D409B
:1004300040403D3C24FF2424487E4943662B2FFC4A
:100440002F2BFF0929F620C0887E090320545479F8
:10045000410000447D413048484A32384040227AC9
:10046000007A0A0A727D0D19317D2629292F282646
:100470002929292630484D4020380808080808084E
:100480000808382F10C8ACBA2F102834FA00007BA7
:10049000000008142A142222142A140855005500BA
:1004A00055AA55AA55AAFF55FF55FF000000FF00A9
:1004B000101010FF00141414FF001010FF00FF10A4
:1004C00010F010F0141414FC001414F700FF0000D6
:1004D000FF00FF1414F404FC141417101F10101F55
:1004E000101F1414141F00101010F0000000001F43
:1004F000101010101F10101010F010000000FF104E
:100500001010101010101010FF10000000FF140049
:1005100000FF00FF00001F10170000FC04F414147B
:100520001710171414F404F40000FF00F714141447
:1005300014141414F700F7141414171410101F10C7
:100540001F141414F4141010F010F000001F101FEA
:100550000000001F14000000FC140000F010F01058
:1005600010FF10FF141414FF141010101F000000CF
:1005700000F010FFFFFFFFFFF0F0F0F0F0FFFFFFD3
:100580000000000000FFFF0F0F0F0F0F384444382A
:1005900044FC4A4A4A347E02020606027E027E0279
:1005A00063554941633844443C04407E201E200684
:1005B000027E020299A5E7A5991C2A492A1C4C72C1
:1005C00001724C304A4D4D303048784830BC625A48
:1005D000463D3E494949007E0101017E2A2A2A2AD8
:1005E0002A44445F444440514A444040444A5140B4
:1005F0000000FF0103E080FF000008086B6B083675
:1006000012362436060F090F0600001818000000E5
:100610001010003040FF0101001F01011E00191DD4
:100620001712003C3C3C3C00000000000000210090
:10063000240027002A002D003000330001010000B3
:10064000040107010A0100002200250028002B00F8
:100650002E003100340002010000050108010B01E9
:1006600000000A0B02090C0D0E080703040100002C
:10067000000000000000000000000000000000007A
:100680000000000000000000000000001211100037
:10069000000000000000000000000000000000005A
:1006A00000000000000000002000230026002900B8
:1006B0002C002F0032000001000003010601090197
:1006C00005050505070508080808020202020A0ACE
:1006D00008080404040401010101010101010303EC
:1006E000030303030303040707070C0C0C0C0C0C97
:1006F0000C0C0202020206060606060606060B0B94
:100700000B0B0B0B0B0B01021020200808102040D4
:1007100010204080020102010804020101020408C5
:100720001020408080402010080402018004020153
:10073000804020100804020108040201010204089C
:10074000102040800102040810204080DD1DB119F6
:1007500011241FBECFEFD1E2DEBFCDBF00E00CBF42
:1007600014E0A0E0B2E0E8EDFFE300E00BBF02C060
:1007700007900D92AE3EB107D9F729E0AEEEB4E096
:1007800001C01D92A633B207E1F713E0C7EAD3E038
:1007900000E006C021970109802FFE010E94A21EE1
:1007A000C63AD10780E00807A9F70E94B2190C9455
:1007B000DB1F26CCFC0177FD9AC0808591856817E8
:1007C00079070CF094C057FD92C082859385481735
:1007D00059070CF08CC08589823009F07CC0848177
:1007E0009581DC01A61BB70BBD01615071098681A3
:1007F0009781FC01E41BF50BAF01415051090AC080
:10080000813041F484819581841B950BAB01BC013F
:10081000615071092130310529F008F1223031058C
:10082000E1F10895FA0157FD3796A3E0F595E795B4
:10083000AA95E1F7F695FE2FEE27F795E7956E0F4F
:100840007F1FFB01E050FE4F4770552781E090E08D
:1008500001C0880F4A95EAF79081892B3AC0FA01C6
:1008600057FD379623E0F595E7952A95E1F7F6953C
:10087000FE2FEE27F795E7956E0F7F1FFB01E050E7
:10088000FE4F4770552781E090E001C0880F4A95E0
:10089000EAF78095908189231CC0FA0157FD3796AD
:1008A00083E0F595E7958A95E1F7F695FE2FEE271B
:1008B000F795E7956E0F7F1FFB01E050FE4F4770E5
:1008C000552781E090E001C0880F4A95EAF79081B2
:1008D000892780830895833009F092CF868197819C
:1008E000861B970BBA01AC014150510993CF089573
:1008F000089581E090E0309136052091350532175A
:1009000010F480E090E0919581959109089580918F
:10091000360590913505891730F48F5F8093360541
:1009200080E090E008958FEF9FEF08958091350566
:1009300090E020913605821B91090895089580E08A
:1009400090E0089585ED8093BC008091BC0084FD0B
:10095000FCCF10926705089540911005262F30E0D6
:10096000240F311D21323105DCF42091670524303C
:10097000C9F4FC0180E090E0861758F4309110052E
:100980002191DC01A251BB4FA30FB11D2C93019605
:10099000F3CF80911005680F6093100580E00895F3
:1009A00081E0089582E00895CF92DF92EF92FF9266
:1009B0000F931F93CF93DF937C01262F972F8A01EC
:1009C00080916805882391F0C62FD72F6E01C40E41
:1009D000D51ECC15DD0569F06991D701ED91FC912B
:1009E0000190F081E02DC7011995F3CF642F822F7C
:1009F000B3DFC801DF91CF911F910F91FF90EF906E
:100A0000DF90CF900895CF93DF931F92CDB7DEB7DD
:100A10006983209168052223D1F020918B05203233
:100A200040F021E030E0FC013383228380E090E05D
:100A300014C080916905E82FF0E0E659FA4F9981DA
:100A400090838F5F8093690580938B0504C061E07C
:100A5000CE01019681DF81E090E00F90DF91CF9190
:100A600008950C943F1F0C943F1F0C943F1F1F933D
:100A7000CF93DF93EC01162F8C8D8F3F09F1EEA100
:100A8000FFA190818CA5892B8083E8A5F9A5908191
:100A90008DA5809589238083EEA1FFA190818CA5EF
:100AA000809589238083CE010E945314EEA1FFA17B
:100AB00090818CA5892B8083DF91CF911F91089520
:100AC0008A8D91E09093680580938A05109269055C
:100AD00010928B0560E089E296E095DF612F89E254
:100AE00096E091DFDF91CF911F910C946B150895E3
:100AF0000C943F1F08950C943F1F08950895089586
:100B0000EF92FF920F931F93CF93DF93EC01A29686
:100B10008C01045D1F4FEE24E394F12C8881229612
:100B20000E94DA188E3021E092071CF0F986E886E0
:100B300005C08B3F910514F419861886C017D1079C
:100B400069F7DF91CF911F910F91FF90EF9008957A
:100B5000CF93DF93EC01D4DF2CA53DA588A999A9FB
:100B60002130310559F42EA53FA52130310531F44E
:100B70008130910519F488ED94E00DC0019759F486
:100B80008AA99BA9019739F48CA99DA9019719F409
:100B90008AEC94E000C0DF91CF910895EF92FF922C
:100BA0000F931F93CF93DF93EC0166968C01045E45
:100BB0001F4FEE24E394F12C888122960E94DA18CC
:100BC0008A3822E092071CF0FD82EC8205C089354C
:100BD000924014F41D821C82C017D10769F7DF917F
:100BE000CF911F910F91FF90EF90089508950C946D
:100BF0003F1FEF92FF920F931F93CF93DF937A01E2
:100C0000E90182E00E941418B70183E00E941418E1
:100C1000BE0184E00E941418B80185E0DF91CF91F5
:100C20001F910F91FF90EF900C9414180F931F9346
:100C3000CF93DF93EC0164DFCE01B0DF8CA59DA5DF
:100C40000097B9F52EA53FA58CA99DA921303105A6
:100C5000F1F448A959A94130510551F46AA97BA979
:100C60006130710529F4009719F41BAE1AAE91C0DA
:100C70004130510509F04AC06AA97BA9672B09F0E8
:100C800045C0009709F042C05BAF4AAF82C0211552
:100C90003105E1F548A959A94130510509F56AA97D
:100CA0007BA961307105E1F40097D1F48FEF9FEFDC
:100CB0006EC0019709F06DC02EA53FA58CA99DA916
:100CC00021303105D1F448A959A9452BB1F44AA9DD
:100CD0005BA9452B91F4009781F482E090E057C026
:100CE000452BA1F44AA95BA94130510579F4813023
:100CF000910561F48EEF9FEF4AC0009769F483E09D
:100D000090E09BAF8AAF1DAE1CAE43C08130910511
:100D1000D1F42DEF3FEF12C021303105C1F428A9E5
:100D200039A921303105A9F52AA93BA9213031057E
:100D300081F58130910569F524E030E03BAF2AAFC1
:100D40009DAF8CAF26C02230310598F40FC0232B05
:100D500001F528A939A9232BE1F42AA93BA9232BC2
:100D6000C1F40197B1F485E090E011C02130310564
:100D700081F0232B71F428A939A9232B51F42AA936
:100D80003BA9232B31F4892B21F487E090E09BAF22
:100D90008AAF8AAD9BADFE01EC5BFF4F91838083F0
:100DA0009C012D5F3F4F2730310508F079C09B87AC
:100DB0008A872C853D85280F391F3D872C872885FC
:100DC0003985AC01421B530B5F874E872AE0289F71
:100DD000B001299F700D1124E9E1E49F9001E59F86
:100DE000300D1124260F371F398B288B9987888760
:100DF00018161906BCF488EC90E0821B930B9B8BB1
:100E00008A8B28533F4F3D8B2C8B8F3F910529F0C8
:100E100024F08FEF90E09B8B8A8B2F3F310509F0F8
:100E2000C4F53BC0892BF1F48FEF90E09B8B8A8B4C
:100E30009D8B8C8B6FEF70E082E00E94141860E055
:100E400070E083E00E9414186C897D8984E00E9420
:100E5000141860E070E085E0DF91CF911F910F9151
:100E60000C941418A90148535F4F5B8B4A8B88EC94
:100E700090E0821B930B9D8B8C8B4F3F510529F08B
:100E800024F02FEF30E03B8B2A8B8F3F910529F028
:100E900024F08FEF90E09D8B8C8B6A897B89CCCF7F
:100EA0008430910519F5229600E010E026E930E043
:100EB00040E050E066E970E0CE019BDE64E670E061
:100EC00080E090E00E94F91826E930E046E950E021
:100ED00060E070E0CE018DDE64EF71E080E090E0D4
:100EE000DF91CF911F910F910C94F9189C0125501F
:100EF00031092230310528F400E010E026EE30E020
:100F000015C00797D1F48CAD9DAD009749F400E072
:100F100010E026E930E046E950E060E070E00AC009
:100F2000019759F406E910E020E030E040E050E09D
:100F300066E970E0CE0102965CDEDF91CF911F91F1
:100F40000F91089560E082E00E94C51660E083E0A2
:100F50000E94C51660E084E00E94C51660E085E04E
:100F60000C94C516EF92FF920F931F93CF93DF93CC
:100F7000EC017B0181E08E8B81E090E09D8B8C8B7E
:100F80009B8B8A8B1F861E86198A188A8E010E5F9C
:100F90001F4F6CEC74E0C801B6D36AED74E0C80171
:100FA000B2D31F861E868AE090E0998B888B6DED08
:100FB00074E0C801A8D3B701C8010E94C8151F86F4
:100FC0001E8684E190E0998B888B64EE74E0C80102
:100FD0009AD3C854DF4F68817981C8010E94C8152F
:100FE000C8010E94801480E092E0E0E0F2E0DF01BE
:100FF0009C011D9221503040E1F7DF91CF911F916C
:101000000F91FF90EF900895CF93DF93FC018EE551
:1010100094E0918380831582148220E830E0378346
:10102000268380E290E091878087338722879587A7
:101030008487178A17861686118A108A81E0868B24
:101040002FEF3FEF358B248B338B228B808F118ECC
:10105000138E128E82E394E0938382838FEF868FC8
:1010600082A380A3878F81A386EB94E091AB80ABB2
:1010700086EA94E093AB82AB8EEB94E095AB84ABC5
:10108000DF01A25ABF4F2EEA34E011963C932E9313
:10109000EF01C05ADF4F99838883D7961C921E9226
:1010A000D697D9961C921E92D897DD961C921E92C6
:1010B000DC97AA5BBF4F11969C938E935496119622
:1010C0001C921E92539611961C921E9212961D927D
:1010D0001D921D921C921397EF52FF4F82E390E0F6
:1010E000A0E0B0E080839183A283B383DF91CF91AE
:1010F0000895EF92FF920F931F93CF93DF93EC012C
:1011000060E08A8D0E94C51683E0E82EF12CC701AD
:101110000197F1F761E08A8D0E94C51603E210E0A5
:10112000C8010197F1F760E08A8D0E94C51661E061
:1011300088A10E944B167FA36EA360E08C8D0E9455
:10114000C516C7010197F1F761E08C8D0E94C516A5
:10115000C8010197F1F760E08C8D0E94C51661E02F
:101160008AA10E944B1679A768A760E08E8D0E9425
:10117000C516C7010197F1F761E08E8D0E94C51673
:10118000C8010197F1F760E08E8D0E94C51661E0FD
:101190008CA10E944B167BA76AA7DF91CF911F916C
:1011A0000F91FF90EF9008951F920F920FB60F923C
:1011B00011240BB60F922F933F934F935F936F932E
:1011C0007F938F939F93AF93BF93EF93FF93809100
:1011D000B900887F803609F49CC068F5883209F42C
:1011E0005BC090F4803109F454C038F4882309F4CA
:1011F000F6C0883009F44DC0F5C0883109F44CC000
:10120000803209F45DC0EEC0803409F468C048F44F
:10121000803309F455C0883309F0E4C08093650534
:10122000D8C0803509F44FC0883509F45DC08834D2
:1012300009F0D8C0D6C0883909F4C7C0A8F48837E7
:1012400009F467C038F4883609F463C0803709F4BC
:1012500060C0C8C0883809F4B8C0803909F45FC0DC
:10126000803809F0BFC05BC0803B09F486C038F409
:10127000803A09F466C0883A09F47FC0B3C0803C64
:1012800009F4A7C0883C09F4A4C0883B09F48AC0CB
:10129000A9C08091420510C09091640580916305BA
:1012A000981770F5E091640581E08E0F80936405D6
:1012B000F0E0ED5BFA4F80818093BB0085EC86C047
:1012C000809365058EC0E091640581E08E0F809368
:1012D00064058091BB00F0E0ED5BFA4F8083909154
:1012E0006405809163056EC0E091640581E08E0F16
:1012F000809364058091BB00F0E0ED5BFA4F808342
:101300008091660581116DC081E08093410584EA7A
:1013100061C083E08093670510923405CFCF809140
:101320003405803208F051C0E091340581E08E0F21
:10133000809334058091BB00F0E0EC5EFA4F80832F
:10134000BDCF85EC8093BC00109267058091340579
:10135000803230F4E0913405F0E0EC5EFA4F108218
:101360006091340570E0E0911205F091130584E17D
:1013700095E019951092340535C084E08093670597
:101380001092110510921005E0910E05F0910F05D5
:10139000199580911005811105C081E08093100599
:1013A0001092EE04E091110581E08E0F80931105FB
:1013B000F0E0E251FB4F80818093BB0090911105DA
:1013C00080911005981708F479CF85E88093BC00C8
:1013D00009C085EC8093BC001092670503C0109291
:1013E0006505B0DAFF91EF91BF91AF919F918F9119
:1013F0007F916F915F914F913F912F910F900BBE15
:101400000F900FBE0F901F901895CF92DF92EF9222
:10141000FF920F931F93CF93DF936C017A018B019F
:10142000C0E0D0E0CE15DF0589F0D8016D918D01C7
:10143000D601ED91FC910190F081E02DC601199546
:10144000892B11F47E0102C02196ECCFC701DF91F8
:10145000CF911F910F91FF90EF90DF90CF90089563
:10146000FC01538D448D252F30E0842F90E0821BAA
:10147000930B541710F0CF96089501970895FC012F
:10148000918D828D981761F0828DDF01A80FB11DBB
:101490005D968C91928D9F5F9F73928F90E00895DF
:1014A0008FEF9FEF0895FC01918D828D981731F099
:1014B000828DE80FF11D858D90E008958FEF9FEFED
:1014C0000895FC01918D228D892F90E0805C9F4FC3
:1014D000821B91098F73992708958CE895E0F1DFBD
:1014E00021E0892B09F420E0822F0895FC01848DEE
:1014F000DF01A80FB11DA35ABF4F2C91848D90E03E
:1015000001968F739927848FA689B7892C93A08918
:10151000B1898C9180648C93938D848D981306C0CF
:101520000288F389E02D80818F7D80830895EF927A
:10153000FF920F931F93CF93DF93EC0181E0888F8D
:101540009B8D8C8D981305C0E889F989808185FD74
:1015500023C0F62E0B8D10E00F5F1F4F0F73112766
:10156000E02E8C8DE8120BC00FB607FCFACFE8898D
:10157000F989808185FFF5CFCE01B8DFF2CF8B8D61
:10158000FE01E80FF11DE35AFF4FF0820B8FEA894D
:10159000FB898081806207C0EE89FF896083E889CA
:1015A000F98980818064808381E090E0DF91CF9130
:1015B0001F910F91FF90EF900895CF93DF93EC016F
:1015C000888D8823C1F0EA89FB89808185FD05C06B
:1015D000A889B9898C9186FD0EC00FB607FCF5CF9E
:1015E000808185FFF2CFA889B9898C9185FFEDCFE5
:1015F000CE017CDFE8CFDF91CF91089580E090E0CD
:10160000892B19F06ADF811125C080E090E0892BD9
:1016100041F080E090E0892B21F00E9400008111D0
:101620001CC080E090E0892B41F080E090E0892BA5
:1016300021F00E940000811113C080E090E0892B0E
:10164000A1F080E090E0892B81F00E9400008111E0
:101650000AC008950E940000D8CF0E940000E1CF88
:101660000E940000EACF0C940000089508950E94A3
:10167000D71F1F920F920FB60F9211242F933F93F3
:101680008F939F93AF93BF938091390590913A05C3
:10169000A0913B05B0913C053091380523E0230F24
:1016A0002D3720F40196A11DB11D05C026E8230F9A
:1016B0000296A11DB11D20933805809339059093A2
:1016C0003A05A0933B05B0933C0580913D05909170
:1016D0003E05A0913F05B09140050196A11DB11DA9
:1016E00080933D0590933E05A0933F05B093400540
:1016F000BF91AF919F918F913F912F910F900FBE0E
:101700000F901F9018956115710579F0FB010190FC
:101710000020E9F73197AF01461B570BDC01ED9133
:10172000FC910280F381E02D199480E090E008950F
:101730001F920F920FB60F9211240BB60F922F9398
:101740003F934F935F936F937F938F939F93AF9349
:10175000BF93EF93FF938CE895E0C8DEFF91EF9184
:10176000BF91AF919F918F917F916F915F914F91B9
:101770003F912F910F900BBE0F900FBE0F901F90B7
:1017800018951F920F920FB60F9211240BB60F925D
:101790002F938F939F93EF93FF93E0919C05F0918C
:1017A0009D058081E091A205F091A30582FD12C004
:1017B00090818091A5058F5F8F732091A605821778
:1017C00051F0E091A505F0E0E457FA4F958F809332
:1017D000A50501C08081FF91EF919F918F912F917D
:1017E0000F900BBE0F900FBE0F901F901895FC012D
:1017F0006370658B8481958126813781613039F0F2
:10180000633029F091878087338722870895318755
:1018100020879387828708952F923F924F925F92FD
:101820006F927F928F929F92AF92BF92CF92DF92F0
:10183000EF92FF920F931F93CF93DF93CDB7DEB755
:101840006C970FB6F894DEBF0FBECDBF9C8F8B8F09
:101850005B011A011F830E833701C982DC01589690
:101860004D915C9159974115510509F0E5C01896C5
:101870008D919C911997681779070CF0CAC11A9637
:101880008D919C911B97281639060CF0C2C18C2CA7
:10189000912CFB0136E0C39EE00DF11D1124FB8766
:1018A000EA871E161F060CF0B4C1C40133E0880F8E
:1018B000991F3A95E1F79D878C87820D931D181625
:1018C00019060CF0A6C157968C91811103C0203BDC
:1018D00008F02F5FAB8DBC8DED91FC9111970284C8
:1018E000F385E02DCD012A8F19952A8DB5E02B9F28
:1018F00090011124F5013596FF87EE87BB82AA82FD
:101900002501A9014A195B09598B488BC101089629
:101910009B8B8A8BE889F989E40DF51DE45DFE4F08
:101920009491988761013D822C82A885A0FF13C005
:10193000AB8DBC8DED91FC91B981B13031F4048453
:10194000F585E02D2E813F8116C00684F785E02DB8
:10195000EE80FF801AC0EE81FF816E167F06F1F0E7
:10196000AB8DBC8DED91FC91B981B13051F4048403
:10197000F585E02D9301A601B2018B8D9C8D199503
:101980000DC00684F785E02D7301840194014C811C
:101990005D816A817B818B8D9C8D1995E885E695AB
:1019A000E887FFEFCF1ADF0A2C813D81280D391D12
:1019B0003D832C834A895B89C416D50609F0B5CFCF
:1019C0005FEF451A550A8A819B81880D991D9B837B
:1019D0008A83AE85BF854A165B0609F09BCFEE81F0
:1019E000FF816E167F0609F4F2C0EB8DFC8DA0819D
:1019F000B181F981F13079F4B5016B5F7F4F509679
:101A0000ED91FC915197830128E030E0A1018B8D8D
:101A10009C8D1995DCC06A857B85681979091E96AD
:101A2000ED91FC911F9773010C851D859401A10117
:101A30008B8D9C8D1995CBC0FA0134969491329779
:101A400065917491291BCB01B7E02B9F800D911DEF
:101A50001124FA01259134913B8B2A8BFC0145918D
:101A600054915B834A83FC013296C4903196549121
:101A70005E87329614913196D4908981823058F0E5
:101A8000612E012E000C7708AD2D0D2C000CBB0B28
:101A9000B987A88704C019861886612C712CAB8D74
:101AA000BC8DED91FC9111970284F385E02DCD0161
:101AB0001995B9818B2E912C689CC001699C900D61
:101AC000789C900D1124FC01EA0DFB1DFD87EC872D
:101AD0001C82712C612CE12F110FFF0B95012E0F31
:101AE0003F1F3B872A87AC0CB11CA5014E0F5F1F1F
:101AF0005F8B4E8BC1018D0D911DD7FC9A95998FEF
:101B0000888F4E85641608F062C0862D90E0488567
:101B10005985480F591F489D9001499D300D589D8A
:101B2000300D1124D901A20DB31DB98BA88BAA8445
:101B3000BB844C845D84DC80BA85DB1AE88DF98D2A
:101B4000E80FF91FFD8BEC8B8D2D8A0D2E893F89B7
:101B5000A216B306B9F1877061F48A819B81019660
:101B6000EA89FB89AA81BB81EA0FFB1F74909B83E2
:101B70008A8377FE20C0AB8DBC8DED91FC91B9813D
:101B8000B13061F40484F585E02D2E813F814C89CC
:101B90005D89B5018B8D9C8D19950DC00684F785E7
:101BA000E02DEE80FF808401940148895989B201BB
:101BB0008B8D9C8D1995770CEFEFAE1ABE0A480CF1
:101BC000591CC2CF3C813C0D3C8363949ACFAB8DB2
:101BD000BC8DED91FC9111970688F789E02DCD0120
:101BE0006C960FB6F894DEBF0FBECDBFDF91CF91DC
:101BF0001F910F91FF90EF90DF90CF90BF90AF902B
:101C00009F908F907F906F905F904F903F902F901C
:101C100019946C960FB6F894DEBF0FBECDBFDF915E
:101C2000CF911F910F91FF90EF90DF90CF90BF90D9
:101C3000AF909F908F907F906F905F904F903F906C
:101C40002F900895AF92BF92CF92EF92FF920F9391
:101C50001F93CF93DF93EC01262F888D998D0097EA
:101C600009F03FC06A3059F41D861C862C898E8588
:101C70009F8538E0239F800D911D112440C06D3059
:101C800009F4A8C08E898823C1F03C898C859D8584
:101C900046E0349F800D911D1124488559854817D1
:101CA00059075CF41D861C868E859F8548E0349F0D
:101CB000800D911D11249F878E87EA88FB880889F3
:101CC00019894E855F856C857D85CC88CE01A4DD24
:101CD0002C898C859D8536E0239F800D911D1124D4
:101CE00042C06A3079F41D861C862C89FC01369628
:101CF000E4918E859F852E9F800D911D11249F87D5
:101D00008E8768C06D3009F465C0FC01349634914B
:101D1000631708F45FC03196E491E61708F45AC0DF
:101D2000FC013296A590B490462F50E0431B510918
:101D300037E0349FB001359F700D1124A60EB71EF9
:101D4000F501329634913196E491332311F0E1118B
:101D50000DC0F5013496E4912C898C859D85E29F18
:101D6000800D911D11249D878C8734C0F501359617
:101D700044915E89552311F16C89E32FF0E0E40F63
:101D8000F11D47FDFA956E9FD0016F9FB00D112494
:101D90004C855D854A0F5B1FE885F985E417F507DB
:101DA0006CF41D861C86FC013696E4918E859F8519
:101DB0006E9F800D911D11249F878E87EA88FB8876
:101DC000088919894E855F856C857D85CC88CE0113
:101DD00023DDBFCF81E090E0DF91CF911F910F9184
:101DE000FF90EF90CF90BF90AF9008956F927F9249
:101DF0008F929F92AF92BF92CF92DF92EF92FF921B
:101E00000F931F93CF93DF93EC014B015A016901AC
:101E10003801E881F9810284F385E02D1995E88184
:101E2000F9810288F389E02D87019601A501B401AB
:101E3000CE011995E881F981A501460D571D415044
:101E400051090288F389E02D9601B401CE0119955C
:101E5000E881F9810088F189E02D9301A501B401A1
:101E6000CE011995E881F981C80CD91CB6016150E1
:101E700071090088F189E02D9301A501CE01199522
:101E8000E881F9810688F789E02DCE01DF91CF91B5
:101E90001F910F91FF90EF90DF90CF90BF90AF9088
:101EA0009F908F907F906F901994CF92DF92EF92D6
:101EB000FF920F931F93CF93DF9300D000D0CDB745
:101EC000DEB76C01DC01ED91FC916217730789F4B8
:101ED000041715072CF4942F852FA801092F182F0C
:101EE000041B150B98012F5F3F4F048CF58DE02DDF
:101EF00012C04017510709F5261737072CF4962F03
:101F0000872FB901292F382F261B370B2F5F3F4F03
:101F1000068CF78DE02D8701C601199526960FB620
:101F2000F894DEBF0FBECDBFDF91CF911F910F910F
:101F3000FF90EF90DF90CF9008950284F385E02D1D
:101F40002D833E834B835C8369837A831995D60105
:101F5000ED91FC910488F589E02D2D813E814B8126
:101F60005C8169817A81C6011995D601ED91FC9158
:101F70000688F789E02DC60126960FB6F894DEBFD5
:101F80000FBECDBFDF91CF911F910F91FF90EF90CA
:101F9000DF90CF901994EF92FF920F931F93DC0183
:101FA000ED91FC9111971A960D911C911B97189623
:101FB0002D913C91199700A0F1A1E02D7B0140E00B
:101FC00050E060E070E019951F910F91FF90EF9045
:101FD00008954F925F926F927F928F929F92AF92ED
:101FE000BF92CF92DF92EF92FF920F931F93CF9306
:101FF000DF931F921F92CDB7DEB76C015A013901F2
:102000004801DC01ED91FC910284F385E02D6983A8
:102010007A8319956981462E7A81572E640C751C36
:10202000D601ED91FC91461457046CF40088F189B7
:10203000E02D87019401A501B201C6011995BFEFFA
:102040004B1A5B0AEDCF0688F789E02DC6010F9089
:102050000F90DF91CF911F910F91FF90EF90DF9044
:10206000CF90BF90AF909F908F907F906F905F9038
:102070004F901994AF92BF92CF92DF92EF92FF925E
:102080000F931F93CF93DF9300D01F92CDB7DEB78E
:102090005C016901DC01ED91FC910284F385E02D86
:1020A0004B835C8369837A831995D501ED91FC910B
:1020B00069817A819B012C0D3D1D215031090488D5
:1020C000F589E02D78014B815C818A01C501199564
:1020D000D501ED91FC910688F789E02DC5010F909F
:1020E0000F900F900F90DF91CF911F910F91FF9064
:1020F000EF90DF90CF90BF90AF901994AF92BF92C6
:10210000CF92DF92EF92FF920F931F93CF93DF93C3
:1021100000D01F92CDB7DEB75C016901DC01ED9103
:10212000FC910284F385E02D4B835C8369837A8381
:102130001995D501ED91FC914B815C81C40ED51EA2
:10214000B1E0CB1AD1080488F589E02D7801860129
:1021500069817A819B01C5011995D501ED91FC91A9
:102160000688F789E02DC5010F900F900F900F9012
:10217000DF91CF911F910F91FF90EF90DF90CF9063
:10218000BF90AF9019940895EF92FF920F931F9311
:10219000DC01ED91FC9100A0F1A1E02D19951F91BA
:1021A0000F91FF90EF9008950F931F93DC01ED9135
:1021B000FC91068CF78DE02D19951F910F910895D4
:1021C0000F931F93DC01ED91FC91048CF58DE02DB4
:1021D00019951F910F910895DC01ED91FC910084F8
:1021E000F185E02D199408952F923F924F925F92BE
:1021F0006F927F928F929F92AF92BF92CF92DF9217
:10220000EF92FF920F931F93CF93DF9300D0CDB740
:10221000DEB74C017B836A836A015901170198017B
:10222000241B350B37FF03C0319521953109C501BA
:102230004A815B81841B950B97FF03C09195819523
:10224000910951E059838217930714F019820BC04A
:102250009A2D8B2D5801092F182F9A818B81DB82A3
:10226000CA82C92ED82E8A819B81A816B9065CF431
:102270009C2D8D2D6801092F182F9A818B81BB828F
:10228000AA82A92EB82E2501AA81BB814A1A5B0A0F
:1022900038016C187D0877FE03C071946194710851
:1022A000720157FE03C0BFEFEB1AFB0AF594E794E7
:1022B000C016D1061CF00FEF1FEF1FC001E010E0A9
:1022C0001CC0D401ED91FC91B9810484F585E02D09
:1022D0009101BB23C1F04A815B81B601C40119950C
:1022E000E618F708F7FE04C0C00ED11EE40CF51C7A
:1022F000EA81FB813196FB83EA834A815B81A416E4
:10230000B506FCF604C0A6016A817B81E7CF0F9079
:102310000F900F90DF91CF911F910F91FF90EF9051
:10232000DF90CF90BF90AF909F908F907F906F90F5
:102330005F904F903F902F9008950F931F93CF93EE
:10234000DF93DC0155968C915597823071F0833084
:1023500009F1813009F08CC01496ED91FC9115972C
:10236000E41BF50BE21BF30B20C01496ED91FC91DE
:102370001597CF01861B970BBC016150710916960A
:10238000ED91FC911797CF01841B950BAC01421B7B
:10239000530B6EC01696ED91FC911797CF01861BDB
:1023A000970BBC0161507109FA0177FD1BC11696AC
:1023B0008D919C911797681779070CF013C1F7FF5F
:1023C00004C02E0F3F1FE0E0F0E014968D919C9129
:1023D0001597AF01420F531F841795071CF49C01FA
:1023E0002E1B3F0B121613060CF0FCC0CB0177FD21
:1023F000079643E0959587954A95E1F79695982F2E
:10240000882797958795E80FF91FE050FE4F677072
:10241000772781E090E001C0880F6A95EAF7482F9E
:102420000130110541F088F00230110509F0DAC0E1
:102430002E0F3F1F15C02E0F3F1FE217F30709F4A1
:10244000D1C08081842B8193F8CF80952E0F3F1FC0
:10245000E217F30709F4C6C0908198239193F8CF4F
:10246000E217F30709F4BEC0808184278193F8CF77
:1024700077FDB8C014968D919C91159768177907D0
:102480000CF0B0C057FF04C0240F351F40E050E0EF
:1024900016968D919C911797FA01E20FF31F8E17F4
:1024A0009F071CF49C01241B350B121613060CF01D
:1024B00099C0A22F842F86958695869590E8899F4E
:1024C000600D711D1124FB01E050FE4F4770A9F112
:1024D00098E0941B492F50E0EA01C659DB4F8881F0
:1024E000291790F4421B51092FEF30E002C03595B7
:1024F00027954A95E2F782230130110541F068F0F3
:102500000230110589F06EC00130110519F42081E7
:10251000822B0CC00130110520F48095208182238C
:1025200005C00230110531F4208182278083A9176C
:1025300008F458C0A91BE058FF4FA83048F10230FA
:10254000110559F4EF018A2F988190959883C0580E
:10255000DF4F88508830C0F730C081E0013011056E
:1025600009F080E08195EF019A2F8883C058DF4FF2
:1025700098509830D0F788EF8A0F86958695869583
:1025800090E8899FE00DF11D1124E058FF4FA770DE
:10259000AA2341F1B0E0AE59BB4F8C910130110537
:1025A00029F038F002301105D1F01CC09081892B40
:1025B00018C080959081892314C088EF8A0F869572
:1025C0008695869590E8899FE00DF11D1124E058CD
:1025D000FF4FA77039F0B0E0AE59BB4F8C9190819E
:1025E00089278083DF91CF911F910F9108950F93D9
:1025F0001F93CF93DF93DC01FB0155968C91559788
:10260000823081F0833019F1813051F514968D912B
:102610009C911597BC01641B750BAB01415051098E
:10262000BF0181C014966D917C911597CB018E1BD3
:102630009F0BFC0116968D919C911797BC01641B12
:10264000750BAB0141505109E21BF30B09C0169603
:102650006D917C9117976E1B7F0B621B730B63C090
:1026600057FD1CC116968D919C91179748175907D5
:102670000CF014C1F7FF04C02E0F3F1FE0E0F0E0A4
:1026800014968D919C911597BF01620F731F861749
:1026900097071CF49C012E1B3F0B121613060CF01F
:1026A000FDC0CA0157FD079663E0959587956A9529
:1026B000E1F79695982F882797958795E80FF91F4A
:1026C000E050FE4F4770552781E090E001C0880F31
:1026D0004A95EAF7482F0130110541F088F00230A1
:1026E000110509F0DBC02E0F3F1F15C02E0F3F1F35
:1026F000E217F30709F4D2C08081842B8193F8CFCD
:1027000080952E0F3F1FE217F30709F4C7C0908191
:1027100098239193F8CFE217F30709F4BFC08081A3
:1027200084278193F8CF57FDB9C014968D919C9161
:102730001597481759070CF0B1C077FF04C0260F52
:10274000371F60E070E016968D919C911797FB0102
:10275000E20FF31F8E179F071CF49C01261B370BFB
:10276000121613060CF09AC0A22F862F8695869516
:10277000869590E8899F400D511D1124FA01E05083
:10278000FE4F6770A9F198E0961B492F50E0EA01CF
:10279000C659DB4F8881291790F4421B51092FEF4E
:1027A00030E002C0359527954A95E2F78223013043
:1027B000110541F068F00230110589F06FC0013059
:1027C000110519F42081822B0CC00130110520F471
:1027D00080952081822305C00230110531F42081CB
:1027E00082278083A91708F459C0A91BE058FF4F1E
:1027F000A83048F10230110559F4EF018A2F988171
:1028000090959883C058DF4F88508830C0F731C00A
:1028100081E00130110509F080E08195EF019A2FE8
:102820008883C058DF4F98509830D0F788EF8A0FD0
:1028300086958695869560E8869FE00DF11D1124AA
:10284000E058FF4FA770AA2349F1B0E0AE59BB4F43
:102850008C910130110529F038F002301105D9F0C2
:102860001DC09081892B03C080959081892380832E
:1028700015C088EF8A0F86958695869570E8879FA4
:10288000E00DF11D1124E058FF4FA77039F0B0E0C2
:10289000AE59BB4F8C9190818927E9CFDF91CF91C1
:1028A0001F910F910895FC0181A1882339F06EBD1D
:1028B00000000DB407FEFDCF8EB5089528E030E08E
:1028C00090E8A4A1B5A14C9183A5809584238C9315
:1028D000A2A1B3A182A5492F462319F04C91842BC4
:1028E00003C04C91809584238C93A4A1B5A14C91F5
:1028F00083A5842B8C9396952150310911F7089567
:10290000CF92DF92EF92FF920F931F93CF93DF93BB
:10291000EC0161E20E94370560E0CE010E943705BC
:102920006FE7CE010E94370562E2CE010E943705B3
:1029300060E0CE010E94370563E0CE010E943705BA
:102940008C8D8F3F29F1EEA1FFA190818CA5892B61
:102950008083E8A5F9A590818DA5892B8083EEA1C0
:10296000FFA190818CA580958923808300E012E0EF
:10297000F80161918F01CE0196DFF4E000301F076E
:10298000B9F7EEA1FFA190818CA5892B808331C07E
:10299000D090B8008CE08093B80000E012E0CC2426
:1029A000C3948A8DC092680580938A051092690548
:1029B00010928B0560E489E296E00E940305E12C09
:1029C000F12CF801EE0DFF1D608189E296E00E9476
:1029D00003058FEFE81AF80AE0E1EE16F10489F733
:1029E0007AD0005F1F4FF4E000301F07D1F6D0927D
:1029F000B800DF91CF911F910F91FF90EF90DF9082
:102A0000CF9008953FB7F89480913D0590913E0591
:102A1000A0913F05B091400526B5A89B05C02F3F6A
:102A200019F00196A11DB11D3FBFBA2FA92F982FF4
:102A30008827820F911DA11DB11DBC01CD0142E06F
:102A4000660F771F881F991F4A95D1F70895109236
:102A50006F0710926E07109271071092700788E34B
:102A600097E00E94800588E397E00E94CE05809160
:102A70006E0790916F07E4E5F7E0219131912130E5
:102A8000310509F4019627E0EA35F207B1F7909392
:102A90006F0780936E072091700730917107E4E60D
:102AA000F7E081919191019711F42F5F3F4F87E0FB
:102AB000EE36F807B1F730937107209370078091D5
:102AC0006E0790916F07039721F481E0253031055F
:102AD00009F080E0089520918B0590918A052132BC
:102AE00008F04AC0809167058111FCCF32E0309335
:102AF000670531E0309366053FEF3093650510922E
:102B0000640520936305AAE6B5E043E455E0FA01C5
:102B10003E2F341B321718F43D913193F9CF1092A8
:102B2000420520914205990F922B90934205909176
:102B30004105913061F410924105909142059093C6
:102B4000BB009091BC0093FDF8CF95EC01C095EED1
:102B50009093BC00909167059230E1F390916505E8
:102B60009F3F79F080916505803241F08091650545
:102B7000803331F084E005C081E003C082E001C011
:102B800083E01092690510928B05109268050895F4
:102B90004F925F926F927F928F929F92AF92BF926D
:102BA000CF92DF92EF92FF920F931F93CF93DF9319
:102BB000CDB7DEB7A1970FB6F894DEBF0FBECDBF7D
:102BC0008C016B01770FEE08FF08F7FE2FC0DC01C8
:102BD000ED91FC910190F081E02D6DE219955C0181
:102BE00022273327A9012C193D094E095F0919A293
:102BF000FE01B1967F019AE0492E512C612C712C77
:102C0000CA01B901A30192010E94801E605DD70133
:102C10006E937D01211531054105510589F7BD01EF
:102C2000C8010E94830B8A0D9B1D1EC0A70196013F
:102C300019A2FE01B1967F018AE0882E912CA12C69
:102C4000B12CCA01B901A50194010E94801E605DEA
:102C5000D7016E937D01211531054105510589F795
:102C6000BD01C8010E94830BA1960FB6F894DEBF88
:102C70000FBECDBFDF91CF911F910F91FF90EF90CD
:102C8000DF90CF90BF90AF909F908F907F906F908C
:102C90005F904F9008950F931F93262F90E0FC01B3
:102CA000EA5FF84F6491FC01E054F94FE49122236C
:102CB00011F0462F01C040E0F0E0EE0FFF1FEA5593
:102CC000F94F8591949100E412E42FE030E004D3B1
:102CD000611571058105910549F0DC01CB01019673
:102CE000A11DB11DBC01CD019F7003C060E070E06B
:102CF000CB011F910F9108952091A6073091A7074E
:102D00002D3B32400CF43FC0FC01EE0FFF1FEC5591
:102D1000F84F20813181C901875292408233910559
:102D200008F18A569F4F86399105F8F08A569F4FD1
:102D300086399105E8F08A569F4F86399105D8F07B
:102D4000845F914086399105C8F08659910986398A
:102D50009105B8F02558334026393105A0F443E0F9
:102D600050E011C040E050E00EC04FEF5FEF0BC0ED
:102D70004EEF5FEF08C04DEF5FEF05C041E050E060
:102D800002C042E050E0CA010895362F90E0FC01F5
:102D9000E05AF94F4491FC01EA5FF84F2491FC019D
:102DA000E054F94F9491992309F46AC0442309F43B
:102DB00054C050E0FA013197E231F10508F04DC0FE
:102DC0008827EE58FF4F8F4FBDC7809180008F77C7
:102DD00007C0809180008F7D03C080918000877F35
:102DE000809380003AC084B58F7702C084B58F7D10
:102DF00084BD33C08091B0008F7703C08091B00054
:102E00008F7D8093B00029C0809190008F7707C09C
:102E1000809190008F7D03C080919000877F809388
:102E200090001BC08091A0008F7707C08091A00008
:102E30008F7D03C08091A000877F8093A0000DC08C
:102E4000809120018F7707C0809120018F7D03C082
:102E500080912001877F80932001E92FF0E0EE0F21
:102E6000FF1FEA5BF94FA591B4918FB7F894EC91ED
:102E7000311103C020952E2301C02E2B2C938FBF20
:102E800008950F931F93CF938EE198E00E94A207BD
:102E900061E08091380879DF60E080913A0875DF61
:102EA00060E080913C0871DF60E080913E086DDF5A
:102EB00060E080914008EFDE70933508609334083D
:102EC00061E08091380861DF60E080913A085DDF61
:102ED00060E080913C0859DF61E080913E0855DF59
:102EE00060E080914008D7DE9B01709337086093C3
:102EF00036088091340890913508821793071CF4A6
:102F00008AEC94E005C0281739071CF48CEE94E095
:102F1000C82F8C2FCC0F990B24E08A3C920749F4E0
:102F200004E610E020E030E040E050E064E670E0CD
:102F30000BC08C5E944061F400E010E024E630E0C9
:102F400044E650E060E070E08EE198E00E94F90510
:102F5000CF911F910F910895CF93DF9390E0FC01E3
:102F6000EA5FF84F2491FC01E054F94F84918823E3
:102F700061F190E0880F991FFC01E45DF94FC59164
:102F8000D491FC01EA5BF94FA591B491611109C09C
:102F90009FB7F8948881209582238883EC912E2313
:102FA0000BC0623061F49FB7F8943881822F80950E
:102FB00083238883EC912E2B2C939FBF06C08FB761
:102FC000F894E8812E2B28838FBFDF91CF9108954D
:102FD000EF92FF920F931F93CF93DF9302E214E0DF
:102FE000EC016A968CE1E82E84E0F82EF8018081ED
:102FF00091810E5F1F4F888399832296F70121915B
:1030000031917F013D832C8361E0A6DF60E08C81FC
:10301000A3DFF4E008321F0749F7DF91CF911F913A
:103020000F91FF90EF9008951F93CF93DF93182F88
:10303000EB0161E091DF209711F460E004C0CF3F25
:10304000D10531F461E0812FDF91CF911F919DCEA9
:10305000E12FF0E0E05AF94FE4914E2F50E0FA01F1
:103060003197E231F10508F09CC08827EC57FF4FFB
:103070008F4F68C684B5806884BDC7BD97C084B5CE
:10308000806284BDC8BD92C08091800080688093BA
:103090008000D0938900C093880088C08091800010
:1030A000806280938000D0938B00C0938A007EC0A2
:1030B00080918000886080938000D0938D00C093C1
:1030C0008C0074C08091B00080688093B000C09381
:1030D000B3006CC08091B00080628093B000C09358
:1030E000B40064C080919000806880939000D09379
:1030F0009900C09398005AC080919000806280939C
:103100009000D0939B00C0939A0050C08091900093
:10311000886080939000D0939D00C0939C0046C02F
:103120008091A00080688093A0008091A0008F7B98
:103130008093A000D093A900C093A80037C08091CD
:10314000A00080628093A000D093AB00C093AA003F
:103150002DC08091A00088608093A000D093AD0026
:10316000C093AC0023C0809120018068809320012F
:10317000D0932901C093280119C080912001806259
:1031800080932001D0932B01C0932A010FC080911E
:103190002001886080932001D0932D01C0932C01E1
:1031A00005C0C038D1050CF04DCF47CFDF91CF918E
:1031B0001F910895863308F0865390917B00282F45
:1031C0002870977F922B90937B0087708064809308
:1031D0007C0080917A00806480937A0080917A00EC
:1031E00086FDFCCF809178002091790090E0922BB1
:1031F00008958F929F92AF92BF92CF92DF92EF92FB
:10320000FF926B017C01FEDB4B015C01C114D10418
:10321000E104F104E9F0F6DBDC01CB01881999093E
:10322000AA09BB09883E9340A105B10578F321E0C6
:10323000C21AD108E108F10888EE880E83E0981ED2
:10324000A11CB11CC114D104E104F10421F7DECFAB
:10325000FF90EF90DF90CF90BF90AF909F908F90B6
:103260000895F5DB882369F161E08BE08EDD8091C4
:103270002D0990912E098530910529F410922E097F
:1032800010922D0905C0019690932E0980932D0967
:10329000DEDB882389F064E670E082E0C5DE60E072
:1032A00070E083E0C1DE64E670E084E0BDDE60E0F3
:1032B00070E085E0B9DEECCF64EF71E080E090E093
:1032C00098DF60912D0970912E0986E598E00E94A3
:1032D000B20760E08BE059CDCF92DF92EF92FF9280
:1032E0000F931F93E82FF92F05C0015011092109F1
:1032F000310961F1908196239417B9F305C001500B
:1033000011092109310911F1908196239413F7CF06
:10331000C12CD12CE12CF12C0AC08FEFC81AD80A8D
:10332000E80AF80A0C151D052E053F0579F0808185
:103330008623841791F36C2D7D2D8E2D9F2D1F914B
:103340000F91FF90EF90DF90CF90089560E070E0D4
:1033500080E090E01F910F91FF90EF90DF90CF9071
:1033600008950895789484B5826084BD84B58160A1
:1033700084BD85B5826085BD85B5816085BD809140
:103380006E00816080936E001092810080918100B8
:1033900082608093810080918100816080938100B0
:1033A000809180008160809380008091B100846072
:1033B0008093B1008091B00081608093B0008091D3
:1033C0009100826080939100809191008160809350
:1033D0009100809190008160809390008091A10085
:1033E00082608093A1008091A10081608093A10000
:1033F0008091A00081608093A00080912101826073
:10340000809321018091210181608093210180912D
:10341000200181608093200180917A0084608093F4
:103420007A0080917A00826080937A0080917A009D
:10343000816080937A0080917A00806880937A001E
:103440001092C100E0919C05F0919D0582E080837F
:10345000E0919805F09199051082E0919A05F0911C
:103460009B058FEC80831092A405E091A005F0915C
:10347000A10586E08083E0919E05F0919F05808103
:1034800080618083E0919E05F0919F058081886036
:103490008083E0919E05F0919F0580818068808304
:1034A000E0919E05F0919F0580818F7D8083109231
:1034B0002E0910922D098091160490911704809383
:1034C0004E0790934F0760E047DD8091180490917C
:1034D0001904809350079093510760E03DDD80917F
:1034E0001A0490911B04809352079093530760E055
:1034F00033DDCCE0D4E00AE517E08881998122969B
:10350000D8018C9311969C930E5F1F4F60E024DDD1
:10351000B4E0C631DB0789F78EE797E059DD61E05B
:103520008091040419DD61E08091060415DD61E0FD
:103530008091080411DD61E080910A040DDD60E0F6
:1035400089E00ADD60E08091000406DD60E08091A2
:10355000020402DD61E08AE0FFDC82E08093730810
:103560008CE380937208809174088F3F09F4B5C092
:1035700061E080917608F0DC61E080917808ECDC15
:1035800080917808082E000C990BFC01E054F94F4B
:10359000E491F0E0EE0FFF1FEA5BF94F25913491C3
:1035A00030937F0820937E08FC01EA5FF84FE49196
:1035B000E093840880917608082E000C990BFC019A
:1035C000E054F94FE491F0E0EE0FFF1FEA5BF94F92
:1035D000259134913093810820938008FC01EA5FA3
:1035E000F84FE491E09385088091790881113CC0FF
:1035F00061E080917408B0DC61E080917508ACDC1A
:1036000080917508082E000C990BFC01E054F94FCD
:10361000E491F0E0EE0FFF1FEA5BF94F2591349142
:1036200030937D0820937C08FC01EA5FF84FE49119
:10363000E093830880917408082E000C990BFC011C
:10364000E054F94FE491F0E0EE0FFF1FEA5BF94F11
:103650002591349130937B0820937A08FC01EA5F2E
:10366000F84FE491E093820880917908882309F467
:1036700059C0CFB7F89480913705811123C0E5EF89
:10368000F6E08491EBE3F7E09491E82FF0E0EE0FA1
:10369000FF1FE45DF94FA591B491EC91E92319F472
:1036A00061E085E372DB61E085E356DC8CB5806127
:1036B0008CBD8CB580648CBD61E084E34DDC61E041
:1036C00083E34ADC809137058F5F80933705CFBF56
:1036D00080E58CBD81E08DBD25C01092360510922D
:1036E00035051092690510928B051092670581E0EF
:1036F000809366051092410561E084E146DB61E05C
:1037000085E143DB8091B9008E7F8093B900809181
:10371000B9008D7F8093B90088E48093B80085E478
:103720008093BC008091770887FD18C061E014DCAD
:1037300061E08091770829DB61E070E080E090E053
:1037400058DD60E08091770820DB6AE070E080E07F
:1037500090E04FDD61E08091770817DB6EEA88E545
:1037600098E00E94370565ED88E598E00E943705EE
:1037700060E888E598E00E94370568EA88E598E007
:103780000E9437056FE188E598E00E94370563EDF8
:1037900088E598E00E94370560E088E598E00E949F
:1037A000370560E488E598E00E9437056DE888E514
:1037B00098E00E94370564E188E598E00E943705AB
:1037C00060E288E598E00E94370560E088E598E0CF
:1037D0000E94370561EA88E598E00E94370568ECA9
:1037E00088E598E00E9437056AED88E598E00E9438
:1037F000370562E088E598E00E94370561E888E5D2
:1038000098E00E9437056FE888E598E00E94370548
:1038100069ED88E598E00E94370561EF88E598E05A
:103820000E9437056BED88E598E00E94370560E45B
:1038300088E598E00E94370564EA88E598E00E94F0
:10384000370566EA88E598E00E9437056EE288E56C
:1038500098E00E9437056FEA88E598E00E943705F6
:1038600088E598E04DD880E092E0E0E0F2E0DF010A
:103870009C011D9221503040E1F761E082E06CDB59
:1038800061E083E069DB61E084E066DB61E085E0C4
:1038900063DB85E396E09CDB82E498E00E94A2076C
:1038A00060ED77E080E090E0A4DCC4EBD0E08091B4
:1038B0002D0990912E09009761F460E070E081E697
:1038C00096E00E94B20782E498E00E94A207C9DC59
:1038D0000EC18130910561F461E070E081E696E00F
:1038E0000E94B207BEDC88E397E00E941606FFC084
:1038F0008230910509F049C062E070E081E696E00F
:103900000E94B207AEDC8EE797E00E94790882E061
:1039100090E0F2D92AE0AC01249FC001259F900DD0
:1039200011249E01281B390B30939507209394078F
:10393000BC016C547F4F709397076093960740913A
:10394000A8075091A9078091A6079091A7074B312E
:10395000A4E05A0744F48D3BB2E09B070CF04CC046
:10396000493E53404CF08D3B92400CF4C0C000E007
:1039700010E026E430E05BC000E010E026E930E033
:1039800040E050E060E070E056C08330910509F0FF
:103990005BC063E070E081E696E00E94B20761DC04
:1039A0008EE797E00E94790880E090E0A5D92AE0B0
:1039B000AC01249FC001259F900D1124BE01681BFE
:1039C000790B70939507609394079C012C543F4F9B
:1039D00030939707209396074091A4075091A5072D
:1039E0008091A6079091A7074A31A4E05A0774F482
:1039F0008D3BB2E09B073CF000E010E040E050E07F
:103A000080E897E0D7C0493E53406CF08D3B924030
:103A10000CF46DC000E010E026E930E040E050E03A
:103A200066E470E008C000E010E020E030E040E034
:103A300050E066E970E080E897E00E94F9056AE8E6
:103A400072E080E090E052C084309105A1F564E01E
:103A500070E081E696E00E94B20703DC88ED97E013
:103A60000E94800520910408309105088091080883
:103A7000909109082130310551F4209106083091C8
:103A800007082130310519F48130910599F101972A
:103A900029F088ED97E00E941606E0CF80910A0891
:103AA00090910B080197A9F780910C0890910D084F
:103AB000019779F71FC00597D1F465E070E081E6C2
:103AC00096E00E94B20782E498E00E94A20761E0BB
:103AD0008AE05BD968EE73E080E090E08ADB60E02A
:103AE0008AE053D968EE73E080E090E082DB0E94C8
:103AF000FE0ADDCE88ED97E00E94A805082E000C96
:103B0000990B885D9440D1F48CEA97E00E94790883
:103B10008091D4079091D507893E9340A4F5B1D9FF
:103B200064EF71E080E090E064DB80913208909176
:103B300033080196909333088093320888ED97E01C
:103B40000E94A805082E000C990B8A5C944079F617
:103B50008CEA97E00E9479088091D4079091D5076C
:103B6000893E9340ECF48DD964EF71E080E090E001
:103B700040DB80913208909133080196909333088E
:103B800080933208B4CF00E010E024E630E044E651
:103B900050E060E070E08EE198E00E94F905CECF41
:103BA00004E610E020E030E040E050E064E670E041
:103BB0008EE198E00E94F9059ACF0F931F93CF935F
:103BC000DF93ECE8F5E01382128288EE93E0A0E048
:103BD000B0E084839583A683B78326E734E03183FE
:103BE000208325EC30E03587248724EC30E03787CC
:103BF000268720EC30E0318B208B21EC30E0338BBA
:103C0000228B22EC30E0358B248B26EC30E0378B96
:103C1000268B118E128E138E148EE9E2F6E013823B
:103C2000128284839583A683B78388E894E0918386
:103C30008083E6E3F7E086EC94E0918380838EEA6C
:103C400094E093838283CEEBD4E0D583C48311AE1A
:103C500010AE13AE12AE109275071092740706EAFA
:103C600014E010937F0700937E07D0938107C093E1
:103C7000800726EB34E03093AB072093AA0710931C
:103C8000AD070093AC07D093AF07C093AE079093F6
:103C9000D9078093D807D093DB07C093DA07109237
:103CA0000F0810920E08109211081092100810922E
:103CB000150810921408D0931F08C0931E08109284
:103CC000330810923208D0934308C093420886E527
:103CD00098E00E94040882E090E090932C09809381
:103CE0002B0981E696E00E940408E5E3F6E01183E3
:103CF0000083D383C283DF91CF911F910F910895E9
:103D0000A1E21A2EAA1BBB1BFD010DC0AA1FBB1FDF
:103D1000EE1FFF1FA217B307E407F50720F0A21B51
:103D2000B30BE40BF50B661F771F881F991F1A94BE
:103D300069F760957095809590959B01AC01BD01E8
:103D4000CF010895EE0FFF1F881F8BBF0790F691DC
:103D5000E02D1994CF93DF938230910510F482E027
:103D600090E0E0913409F091350920E030E0C0E0C6
:103D7000D0E0309711F14081518148175907C0F0C8
:103D80004817590761F482819381209719F09B832A
:103D90008A832BC0909335098093340926C021155E
:103DA000310519F04217530718F49A01BE01DF01DB
:103DB000EF010280F381E02DDCCF2115310509F1FF
:103DC000281B390B2430310590F412968D919C916B
:103DD00013976115710521F0FB019383828304C061
:103DE0009093350980933409FD01329644C0FD015A
:103DF000E20FF31F81939193225031092D933C934D
:103E00003AC02091320930913309232B41F420919B
:103E10002A0430912B0430933309209332092091E6
:103E20002804309129042115310541F42DB73EB7FE
:103E300040912C0450912D04241B350BE091320944
:103E4000F0913309E217F307A0F42E1B3F0B28175C
:103E5000390778F0AC014E5F5F4F2417350748F003
:103E60004E0F5F1F50933309409332098193919312
:103E700002C0E0E0F0E0CF01DF91CF9108950F9311
:103E80001F93CF93DF93009709F48CC0FC01329706
:103E90001382128200913409109135090115110520
:103EA00081F420813181820F931F2091320930915A
:103EB00033092817390779F5F0933309E09332096C
:103EC00071C0D80140E050E0AE17BF0750F4129621
:103ED0002D913C911397AD012115310509F1D901BF
:103EE000F3CF9D01DA013383228360817181860FD4
:103EF000971F8217930769F4EC0128813981260FF7
:103F0000371F2E5F3F4F318320838A819B819383AC
:103F10008283452B29F4F0933509E093340942C09C
:103F20001396FC93EE931297ED01499159919E01DE
:103F3000240F351FE217F30771F480819181840FFC
:103F4000951F029611969C938E938281938113966E
:103F50009C938E931297E0E0F0E0D80112968D9139
:103F60009C911397009719F0F8018C01F6CF8D9171
:103F70009C9198012E5F3F4F820F931F2091320931
:103F8000309133092817390769F4309729F41092D2
:103F900035091092340902C013821282109333093A
:103FA00000933209DF91CF911F910F91089581E025
:103FB00090E0F89400C013E0C7EAD3E000E005C049
:103FC000802FFE01BFDE2196011DC83AD10780E097
:083FD0000807B1F7F894FFCFD8
:103FD80000000000000000000000000000000000D9
:103FE80000000000000000000000000000000000C9
:103FF80000000000000000000000000000000000B9
:104008000000000000000000000000000000008028
:104018008080000000000000000000000000000098
:10402800008080C0C0000000000000000000000008
:104038000000000000000000000000000000000078
:104048000000000000000000000000000000000068
:104058000000000000000000000000000000000058
:104068000000000080C0E0F0F8FCF8E0000000006C
:1040780000000000000000000000000000808080B8
:10408800808000808000000000808080808000FFA9
:10409800FFFF00000000808080800000808000001A
:1040A80080FFFF808000808000808080800080808A
:1040B8000000000000808000008C8E84000080F8E2
:1040C800F8F8800000000000000000000000000078
:1040D800F0F0F0F0F0F0F0F0F0F0F0F0E0E0C08098
:1040E80000E0FCFEFFFFFF7FFFFFFFFFFF00000077
:1040F8000000000000000000000000FEFFC70101F2
:10410800010183FFFF00007CFEC70101010183FF5D
:10411800FFFF0038FEC78301010183C7FFFF0000CE
:1041280001FFFF010100FFFF0701010100007FFF00
:1041380080000000FFFF7F0000FFFFFF000001FF7D
:10414800FFFF010000000000000000000000000068
:10415800030F3F7F7FFFFFFFFFFFFFFFE7C7C78F0B
:104168008F9FBFFFFFC3C0F0FFFFFFFFFFFCFCFCFA
:10417800FCFCFCFCFCF8F8F0F0E0C00001030303D1
:10418800030301030300000000010303030301010B
:1041980003010000000103030303010103030000FE
:1041A80000030300000003030000000000000001FA
:1041B80003030303030100000001030100000003DF
:1041C80003010000000000000000000000000000E3
:1041D800410042002400220020001E003700380061
:1041E80039003A003B003E003F004000060007004F
:1041F8000800160018001A000000360980000000A8
:104208000000220E050A9F049E04DA03F310EC1046
:10421800C410E010D410F410C310F70B360B9D1126
:10422800F712E90FCB0F550FF60E000000007A05C4
:104238007B05000103070F1F3F7F0080C0E0F0F8F7
:10424800FCFE00000000970A050A300ADD0A610A30
:104258003F0A530A000000000305D4049F047804B1
:1042680096048704790400000000370B050A9F04B0
:104278009E04000000007D053505000000007F0554
:1042880031050000000077057805000000007E0574
:10429800330500000000F605F70552004265656326
:1042A8006C7573742D4D52534C000D0A004D6F649C
:0E42B800653A2000436F756E743A2000420094
:00000001FF
